{
  "_format": "hh-sol-artifact-1",
  "contractName": "Crowdfund",
  "sourceName": "contracts/Crowdfund.sol",
  "abi": [
    {
      "inputs": [],
      "name": "AlreadyInitialized",
      "type": "error"
    },
    {
      "inputs": [],
      "name": "AlreadyWithdrawn",
      "type": "error"
    },
    {
      "inputs": [],
      "name": "CampaignCancelled",
      "type": "error"
    },
    {
      "inputs": [],
      "name": "CampaignEnded",
      "type": "error"
    },
    {
      "inputs": [],
      "name": "CampaignNotActive",
      "type": "error"
    },
    {
      "inputs": [],
      "name": "CampaignNotEnded",
      "type": "error"
    },
    {
      "inputs": [],
      "name": "CampaignNotSuccessful",
      "type": "error"
    },
    {
      "inputs": [],
      "name": "GoalAlreadyReached",
      "type": "error"
    },
    {
      "inputs": [],
      "name": "GoalNotReached",
      "type": "error"
    },
    {
      "inputs": [],
      "name": "NoContribution",
      "type": "error"
    },
    {
      "inputs": [],
      "name": "NotInitialized",
      "type": "error"
    },
    {
      "inputs": [],
      "name": "ReentrancyGuardReentrantCall",
      "type": "error"
    },
    {
      "inputs": [],
      "name": "TransferFailed",
      "type": "error"
    },
    {
      "anonymous": false,
      "inputs": [
        {
          "indexed": false,
          "internalType": "uint256",
          "name": "timestamp",
          "type": "uint256"
        }
      ],
      "name": "CampaignCancelledEvent",
      "type": "event"
    },
    {
      "anonymous": false,
      "inputs": [
        {
          "indexed": false,
          "internalType": "uint256",
          "name": "timestamp",
          "type": "uint256"
        }
      ],
      "name": "CampaignEndedEarly",
      "type": "event"
    },
    {
      "anonymous": false,
      "inputs": [
        {
          "indexed": true,
          "internalType": "address",
          "name": "contributor",
          "type": "address"
        },
        {
          "indexed": false,
          "internalType": "uint256",
          "name": "amount",
          "type": "uint256"
        }
      ],
      "name": "ContributionMade",
      "type": "event"
    },
    {
      "anonymous": false,
      "inputs": [
        {
          "indexed": true,
          "internalType": "address",
          "name": "owner",
          "type": "address"
        },
        {
          "indexed": false,
          "internalType": "uint256",
          "name": "amount",
          "type": "uint256"
        }
      ],
      "name": "FundsClaimed",
      "type": "event"
    },
    {
      "anonymous": false,
      "inputs": [
        {
          "indexed": true,
          "internalType": "address",
          "name": "contributor",
          "type": "address"
        },
        {
          "indexed": false,
          "internalType": "uint256",
          "name": "amount",
          "type": "uint256"
        }
      ],
      "name": "RefundClaimed",
      "type": "event"
    },
    {
      "inputs": [],
      "name": "cancelCampaign",
      "outputs": [],
      "stateMutability": "nonpayable",
      "type": "function"
    },
    {
      "inputs": [],
      "name": "cancelled",
      "outputs": [
        {
          "internalType": "bool",
          "name": "",
          "type": "bool"
        }
      ],
      "stateMutability": "view",
      "type": "function"
    },
    {
      "inputs": [],
      "name": "claimFunds",
      "outputs": [],
      "stateMutability": "nonpayable",
      "type": "function"
    },
    {
      "inputs": [],
      "name": "claimRefund",
      "outputs": [],
      "stateMutability": "nonpayable",
      "type": "function"
    },
    {
      "inputs": [],
      "name": "contribute",
      "outputs": [],
      "stateMutability": "payable",
      "type": "function"
    },
    {
      "inputs": [
        {
          "internalType": "address",
          "name": "",
          "type": "address"
        }
      ],
      "name": "contributions",
      "outputs": [
        {
          "internalType": "uint256",
          "name": "total",
          "type": "uint256"
        },
        {
          "internalType": "bool",
          "name": "withdrawn",
          "type": "bool"
        }
      ],
      "stateMutability": "view",
      "type": "function"
    },
    {
      "inputs": [
        {
          "internalType": "uint256",
          "name": "",
          "type": "uint256"
        }
      ],
      "name": "contributors",
      "outputs": [
        {
          "internalType": "address",
          "name": "",
          "type": "address"
        }
      ],
      "stateMutability": "view",
      "type": "function"
    },
    {
      "inputs": [],
      "name": "description",
      "outputs": [
        {
          "internalType": "string",
          "name": "",
          "type": "string"
        }
      ],
      "stateMutability": "view",
      "type": "function"
    },
    {
      "inputs": [],
      "name": "endCampaign",
      "outputs": [],
      "stateMutability": "nonpayable",
      "type": "function"
    },
    {
      "inputs": [],
      "name": "endTime",
      "outputs": [
        {
          "internalType": "uint256",
          "name": "",
          "type": "uint256"
        }
      ],
      "stateMutability": "view",
      "type": "function"
    },
    {
      "inputs": [],
      "name": "ended",
      "outputs": [
        {
          "internalType": "bool",
          "name": "",
          "type": "bool"
        }
      ],
      "stateMutability": "view",
      "type": "function"
    },
    {
      "inputs": [],
      "name": "fundsClaimed",
      "outputs": [
        {
          "internalType": "bool",
          "name": "",
          "type": "bool"
        }
      ],
      "stateMutability": "view",
      "type": "function"
    },
    {
      "inputs": [],
      "name": "getCampaignDetails",
      "outputs": [
        {
          "internalType": "address",
          "name": "_owner",
          "type": "address"
        },
        {
          "internalType": "string",
          "name": "_title",
          "type": "string"
        },
        {
          "internalType": "string",
          "name": "_description",
          "type": "string"
        },
        {
          "internalType": "uint256",
          "name": "_goal",
          "type": "uint256"
        },
        {
          "internalType": "uint256",
          "name": "_raisedAmount",
          "type": "uint256"
        },
        {
          "internalType": "uint256",
          "name": "_startTime",
          "type": "uint256"
        },
        {
          "internalType": "uint256",
          "name": "_endTime",
          "type": "uint256"
        },
        {
          "internalType": "bool",
          "name": "_goalReached",
          "type": "bool"
        },
        {
          "internalType": "bool",
          "name": "_fundsClaimed",
          "type": "bool"
        },
        {
          "internalType": "uint256",
          "name": "_contributorsCount",
          "type": "uint256"
        },
        {
          "internalType": "bool",
          "name": "_cancelled",
          "type": "bool"
        },
        {
          "internalType": "bool",
          "name": "_ended",
          "type": "bool"
        }
      ],
      "stateMutability": "view",
      "type": "function"
    },
    {
      "inputs": [
        {
          "internalType": "address",
          "name": "_contributor",
          "type": "address"
        }
      ],
      "name": "getClaimableAmount",
      "outputs": [
        {
          "internalType": "uint256",
          "name": "",
          "type": "uint256"
        }
      ],
      "stateMutability": "view",
      "type": "function"
    },
    {
      "inputs": [],
      "name": "getContributors",
      "outputs": [
        {
          "internalType": "address[]",
          "name": "",
          "type": "address[]"
        }
      ],
      "stateMutability": "view",
      "type": "function"
    },
    {
      "inputs": [],
      "name": "getTopDonors",
      "outputs": [
        {
          "internalType": "address[]",
          "name": "",
          "type": "address[]"
        }
      ],
      "stateMutability": "view",
      "type": "function"
    },
    {
      "inputs": [
        {
          "internalType": "address",
          "name": "_contributor",
          "type": "address"
        }
      ],
      "name": "getTotalContribution",
      "outputs": [
        {
          "internalType": "uint256",
          "name": "",
          "type": "uint256"
        }
      ],
      "stateMutability": "view",
      "type": "function"
    },
    {
      "inputs": [],
      "name": "goal",
      "outputs": [
        {
          "internalType": "uint256",
          "name": "",
          "type": "uint256"
        }
      ],
      "stateMutability": "view",
      "type": "function"
    },
    {
      "inputs": [],
      "name": "goalReached",
      "outputs": [
        {
          "internalType": "bool",
          "name": "",
          "type": "bool"
        }
      ],
      "stateMutability": "view",
      "type": "function"
    },
    {
      "inputs": [
        {
          "internalType": "address",
          "name": "_owner",
          "type": "address"
        },
        {
          "internalType": "string",
          "name": "_title",
          "type": "string"
        },
        {
          "internalType": "string",
          "name": "_description",
          "type": "string"
        },
        {
          "internalType": "uint256",
          "name": "_goal",
          "type": "uint256"
        },
        {
          "internalType": "uint256",
          "name": "_duration",
          "type": "uint256"
        }
      ],
      "name": "initialize",
      "outputs": [],
      "stateMutability": "nonpayable",
      "type": "function"
    },
    {
      "inputs": [],
      "name": "initialized",
      "outputs": [
        {
          "internalType": "bool",
          "name": "",
          "type": "bool"
        }
      ],
      "stateMutability": "view",
      "type": "function"
    },
    {
      "inputs": [],
      "name": "owner",
      "outputs": [
        {
          "internalType": "address",
          "name": "",
          "type": "address"
        }
      ],
      "stateMutability": "view",
      "type": "function"
    },
    {
      "inputs": [],
      "name": "raisedAmount",
      "outputs": [
        {
          "internalType": "uint256",
          "name": "",
          "type": "uint256"
        }
      ],
      "stateMutability": "view",
      "type": "function"
    },
    {
      "inputs": [],
      "name": "startTime",
      "outputs": [
        {
          "internalType": "uint256",
          "name": "",
          "type": "uint256"
        }
      ],
      "stateMutability": "view",
      "type": "function"
    },
    {
      "inputs": [],
      "name": "title",
      "outputs": [
        {
          "internalType": "string",
          "name": "",
          "type": "string"
        }
      ],
      "stateMutability": "view",
      "type": "function"
    },
    {
      "inputs": [
        {
          "internalType": "uint256",
          "name": "",
          "type": "uint256"
        }
      ],
      "name": "topDonors",
      "outputs": [
        {
          "internalType": "address",
          "name": "",
          "type": "address"
        }
      ],
      "stateMutability": "view",
      "type": "function"
    }
  ],
  "bytecode": "0x608060405234801561001057600080fd5b50600160005561161b806100256000396000f3fe6080604052600436106101815760003560e01c80637284e416116100d1578063ac3077731161008a578063c59ee1dc11610064578063c59ee1dc14610481578063d6387ed814610497578063d7bb99ba146104ac578063e12f3a61146104b457600080fd5b8063ac30777314610435578063af157c191461044a578063b5545a3c1461046c57600080fd5b80637284e4161461039557806378e97925146103aa5780637d3d6522146103c05780638da5cb5b146103df578063980e7844146103ff5780639a82a09a1461041457600080fd5b80633cb5d1001161013e5780634a79d50c116101185780634a79d50c1461031e5780635c6a0246146103405780635cbaddab1461036057806371aac7f91461038057600080fd5b80633cb5d1001461028457806340193883146102bc57806342e94c90146102d257600080fd5b80630c611f241461018657806312fa6feb146101bc578063158ef93e146101ee5780631ca29139146102085780632b8f1a3d1461022a5780633197cbb61461026e575b600080fd5b34801561019257600080fd5b5061019b6104d4565b6040516101b39c9b9a999897969594939291906111ad565b60405180910390f35b3480156101c857600080fd5b506008546101de90640100000000900460ff1681565b60405190151581526020016101b3565b3480156101fa57600080fd5b506008546101de9060ff1681565b34801561021457600080fd5b50610228610223366004611301565b610691565b005b34801561023657600080fd5b50610260610245366004611387565b6001600160a01b031660009081526009602052604090205490565b6040519081526020016101b3565b34801561027a57600080fd5b5061026060075481565b34801561029057600080fd5b506102a461029f3660046113a2565b610716565b6040516001600160a01b0390911681526020016101b3565b3480156102c857600080fd5b5061026060045481565b3480156102de57600080fd5b506103096102ed366004611387565b6009602052600090815260409020805460019091015460ff1682565b604080519283529015156020830152016101b3565b34801561032a57600080fd5b50610333610740565b6040516101b391906113bb565b34801561034c57600080fd5b506008546101de9062010000900460ff1681565b34801561036c57600080fd5b506102a461037b3660046113a2565b6107ce565b34801561038c57600080fd5b506102286107de565b3480156103a157600080fd5b506103336108ff565b3480156103b657600080fd5b5061026060065481565b3480156103cc57600080fd5b506008546101de90610100900460ff1681565b3480156103eb57600080fd5b506001546102a4906001600160a01b031681565b34801561040b57600080fd5b5061022861090c565b34801561042057600080fd5b506008546101de906301000000900460ff1681565b34801561044157600080fd5b506102286109c8565b34801561045657600080fd5b5061045f610b95565b6040516101b391906113ce565b34801561047857600080fd5b50610228610bf7565b34801561048d57600080fd5b5061026060055481565b3480156104a357600080fd5b5061045f610dae565b610228610e0e565b3480156104c057600080fd5b506102606104cf366004611387565b610fa0565b60006060806000806000806000806000806000600160009054906101000a90046001600160a01b031660026003600454600554600654600754600860019054906101000a900460ff16600860029054906101000a900460ff16600a80549050600860039054906101000a900460ff16600860049054906101000a900460ff168a805461055f9061141b565b80601f016020809104026020016040519081016040528092919081815260200182805461058b9061141b565b80156105d85780601f106105ad576101008083540402835291602001916105d8565b820191906000526020600020905b8154815290600101906020018083116105bb57829003601f168201915b50505050509a508980546105eb9061141b565b80601f01602080910402602001604051908101604052809291908181526020018280546106179061141b565b80156106645780601f1061063957610100808354040283529160200191610664565b820191906000526020600020905b81548152906001019060200180831161064757829003601f168201915b505050505099509b509b509b509b509b509b509b509b509b509b509b509b50909192939495969798999a9b565b60085460ff16156106b45760405162dc149f60e41b815260040160405180910390fd5b600180546001600160a01b0319166001600160a01b03871617905560026106db85826114a4565b5060036106e884826114a4565b5060048290554260068190556106ff90829061157a565b60075550506008805460ff19166001179055505050565b600a818154811061072657600080fd5b6000918252602090912001546001600160a01b0316905081565b6002805461074d9061141b565b80601f01602080910402602001604051908101604052809291908181526020018280546107799061141b565b80156107c65780601f1061079b576101008083540402835291602001916107c6565b820191906000526020600020905b8154815290600101906020018083116107a957829003601f168201915b505050505081565b600b818154811061072657600080fd5b6001546001600160a01b031633146108115760405162461bcd60e51b815260040161080890611593565b60405180910390fd5b60085460ff16610834576040516321c4e35760e21b815260040160405180910390fd5b600854610100900460ff1661085c57604051630f7fe27160e01b815260040160405180910390fd5b600754421061087e5760405163154eb81560e21b815260040160405180910390fd5b6008546301000000900460ff16156108a8576040516291ea7960e51b815260040160405180910390fd5b6008805464ff0000000019166401000000001790554260078190556040517f7abb60d1a803cce8bf3f3920ab3ff76223137e20d7423eadce63f1c39dbdf5e1916108f59190815260200190565b60405180910390a1565b6003805461074d9061141b565b6001546001600160a01b031633146109365760405162461bcd60e51b815260040161080890611593565b60085460ff16610959576040516321c4e35760e21b815260040160405180910390fd5b60085462010000900460ff16156109835760405163465c128f60e11b815260040160405180910390fd5b6008805463ff000000191663010000001790556040517f7d060c42a420c04ec7724d295448d1846b87115758661da787fef08ac3398c0c906108f59042815260200190565b6001546001600160a01b031633146109f25760405162461bcd60e51b815260040161080890611593565b60085460ff16610a15576040516321c4e35760e21b815260040160405180910390fd5b610a1d610fec565b600854610100900460ff16610a45576040516378c754c960e01b815260040160405180910390fd5b60085462010000900460ff1615610a6f5760405163465c128f60e11b815260040160405180910390fd5b600754421015610a925760405163cc76115360e01b815260040160405180910390fd5b6008546301000000900460ff1615610abc576040516291ea7960e51b815260040160405180910390fd5b6008805462ff00001916620100001790556001546005546040516000926001600160a01b031691908381818185875af1925050503d8060008114610b1c576040519150601f19603f3d011682016040523d82523d6000602084013e610b21565b606091505b5050905080610b43576040516312171d8360e31b815260040160405180910390fd5b6001546005546040519081526001600160a01b03909116907fa65a8b4f7f65a1063243d7f7e9e4da00ff767599acf21549ef2548a45d1695ae9060200160405180910390a250610b936001600055565b565b6060600a805480602002602001604051908101604052809291908181526020018280548015610bed57602002820191906000526020600020905b81546001600160a01b03168152600190910190602001808311610bcf575b5050505050905090565b60085460ff16610c1a576040516321c4e35760e21b815260040160405180910390fd5b610c22610fec565b600854610100900460ff168015610c4357506008546301000000900460ff16155b15610c615760405163465c128f60e11b815260040160405180910390fd5b60075442108015610c7c57506008546301000000900460ff16155b15610c9a5760405163cc76115360e01b815260040160405180910390fd5b336000908152600960205260409020600181015460ff1615610ccf57604051631971fbf360e21b815260040160405180910390fd5b80546001808301805460ff191690911790556000819003610d0357604051631971fbf360e21b815260040160405180910390fd5b604051600090339083908381818185875af1925050503d8060008114610d45576040519150601f19603f3d011682016040523d82523d6000602084013e610d4a565b606091505b5050905080610d6c576040516312171d8360e31b815260040160405180910390fd5b60405182815233907f358fe4192934d3bf28ae181feda1f4bd08ca67f5e2fad55582cce5eb67304ae99060200160405180910390a2505050610b936001600055565b6060600b805480602002602001604051908101604052809291908181526020018280548015610bed576020028201919060005260206000209081546001600160a01b03168152600190910190602001808311610bcf575050505050905090565b60085460ff16610e31576040516321c4e35760e21b815260040160405180910390fd5b610e39610fec565b6007544210610e5b5760405163154eb81560e21b815260040160405180910390fd5b6008546301000000900460ff1615610e85576040516291ea7960e51b815260040160405180910390fd5b34600003610ea657604051631971fbf360e21b815260040160405180910390fd5b336000908152600960205260408120549003610eff57600a80546001810182556000919091527fc65a7bb8d6351c1cf70c95a316cc6a92839c986682d98bc35f958f4883f9d2a80180546001600160a01b031916331790555b3360009081526009602052604081208054349290610f1e90849061157a565b925050819055503460056000828254610f37919061157a565b90915550610f46905033611016565b60045460055410610f61576008805461ff0019166101001790555b60405134815233907f6770260ea820d2f539364e7617e021543aaf6d192f2fd2a47c20db6bd99a4eb99060200160405180910390a2610b936001600055565b6001600160a01b03811660009081526009602090815260408083208151808301909252805482526001015460ff16151591810182905290610fe2578051610fe5565b60005b9392505050565b60026000540361100f57604051633ee5aeb560e01b815260040160405180910390fd5b6002600055565b6001600160a01b038116600090815260096020526040902054600b546005111561108b57600b80546001810182556000919091527f0175b7a638427703f0dbe7bb9bbf987a2551717b34e79f33b5b1008d1fa01db90180546001600160a01b0384166001600160a01b03199091161790555050565b6000806110ca600b6000815481106110a5576110a56115b6565b60009182526020808320909101546001600160a01b0316825260099052604090205490565b905060015b600b548110156111155760006110f1600b83815481106110a5576110a56115b6565b905082811015611102578092508193505b508061110d816115cc565b9150506110cf565b50808311156111615783600b8381548110611132576111326115b6565b9060005260206000200160006101000a8154816001600160a01b0302191690836001600160a01b031602179055505b50505050565b6000815180845260005b8181101561118d57602081850181015186830182015201611171565b506000602082860101526020601f19601f83011685010191505092915050565b6001600160a01b038d168152610180602082018190526000906111d28382018f611167565b905082810360408401526111e6818e611167565b9150508a60608301528960808301528860a08301528760c083015286151560e08301528515156101008301528461012083015283151561014083015261123161016083018415159052565b9d9c50505050505050505050505050565b80356001600160a01b038116811461125957600080fd5b919050565b634e487b7160e01b600052604160045260246000fd5b600082601f83011261128557600080fd5b813567ffffffffffffffff808211156112a0576112a061125e565b604051601f8301601f19908116603f011681019082821181831017156112c8576112c861125e565b816040528381528660208588010111156112e157600080fd5b836020870160208301376000602085830101528094505050505092915050565b600080600080600060a0868803121561131957600080fd5b61132286611242565b9450602086013567ffffffffffffffff8082111561133f57600080fd5b61134b89838a01611274565b9550604088013591508082111561136157600080fd5b5061136e88828901611274565b9598949750949560608101359550608001359392505050565b60006020828403121561139957600080fd5b610fe582611242565b6000602082840312156113b457600080fd5b5035919050565b602081526000610fe56020830184611167565b6020808252825182820181905260009190848201906040850190845b8181101561140f5783516001600160a01b0316835292840192918401916001016113ea565b50909695505050505050565b600181811c9082168061142f57607f821691505b60208210810361144f57634e487b7160e01b600052602260045260246000fd5b50919050565b601f82111561149f57600081815260208120601f850160051c8101602086101561147c5750805b601f850160051c820191505b8181101561149b57828155600101611488565b5050505b505050565b815167ffffffffffffffff8111156114be576114be61125e565b6114d2816114cc845461141b565b84611455565b602080601f83116001811461150757600084156114ef5750858301515b600019600386901b1c1916600185901b17855561149b565b600085815260208120601f198616915b8281101561153657888601518255948401946001909101908401611517565b50858210156115545787850151600019600388901b60f8161c191681555b5050505050600190811b01905550565b634e487b7160e01b600052601160045260246000fd5b8082018082111561158d5761158d611564565b92915050565b6020808252600990820152682737ba1037bbb732b960b91b604082015260600190565b634e487b7160e01b600052603260045260246000fd5b6000600182016115de576115de611564565b506001019056fea2646970667358221220a38039e2d72e4c659bda6bb5cc6eb7e90d071ed812674e8f68e664980f19aaf764736f6c63430008140033",
  "linkReferences": {},
  "deployedLinkReferences": {}
}